{
  "_format": "hh-sol-artifact-1",
  "contractName": "RoastedBeef",
  "sourceName": "contracts/beat/main.sol",
  "abi": [
    {
      "constant": true,
      "inputs": [],
      "name": "ceoAddress",
      "outputs": [
        {
          "name": "",
          "type": "address"
        }
      ],
      "payable": false,
      "stateMutability": "view",
      "type": "function"
    },
    {
      "constant": true,
      "inputs": [],
      "name": "getMyMiners",
      "outputs": [
        {
          "name": "",
          "type": "uint256"
        }
      ],
      "payable": false,
      "stateMutability": "view",
      "type": "function"
    },
    {
      "constant": true,
      "inputs": [],
      "name": "getBalance",
      "outputs": [
        {
          "name": "",
          "type": "uint256"
        }
      ],
      "payable": false,
      "stateMutability": "view",
      "type": "function"
    },
    {
      "constant": true,
      "inputs": [],
      "name": "initialized",
      "outputs": [
        {
          "name": "",
          "type": "bool"
        }
      ],
      "payable": false,
      "stateMutability": "view",
      "type": "function"
    },
    {
      "constant": true,
      "inputs": [
        {
          "name": "rt",
          "type": "uint256"
        },
        {
          "name": "rs",
          "type": "uint256"
        },
        {
          "name": "bs",
          "type": "uint256"
        }
      ],
      "name": "calculateTrade",
      "outputs": [
        {
          "name": "",
          "type": "uint256"
        }
      ],
      "payable": false,
      "stateMutability": "view",
      "type": "function"
    },
    {
      "constant": true,
      "inputs": [
        {
          "name": "eth",
          "type": "uint256"
        },
        {
          "name": "contractBalance",
          "type": "uint256"
        }
      ],
      "name": "calculateEggBuy",
      "outputs": [
        {
          "name": "",
          "type": "uint256"
        }
      ],
      "payable": false,
      "stateMutability": "view",
      "type": "function"
    },
    {
      "constant": true,
      "inputs": [],
      "name": "marketEggs",
      "outputs": [
        {
          "name": "",
          "type": "uint256"
        }
      ],
      "payable": false,
      "stateMutability": "view",
      "type": "function"
    },
    {
      "constant": false,
      "inputs": [],
      "name": "sellEggs",
      "outputs": [],
      "payable": false,
      "stateMutability": "nonpayable",
      "type": "function"
    },
    {
      "constant": true,
      "inputs": [
        {
          "name": "amount",
          "type": "uint256"
        }
      ],
      "name": "devFee",
      "outputs": [
        {
          "name": "",
          "type": "uint256"
        }
      ],
      "payable": false,
      "stateMutability": "pure",
      "type": "function"
    },
    {
      "constant": false,
      "inputs": [],
      "name": "seedMarket",
      "outputs": [],
      "payable": true,
      "stateMutability": "payable",
      "type": "function"
    },
    {
      "constant": false,
      "inputs": [
        {
          "name": "ref",
          "type": "address"
        }
      ],
      "name": "hatchEggs",
      "outputs": [],
      "payable": false,
      "stateMutability": "nonpayable",
      "type": "function"
    },
    {
      "constant": true,
      "inputs": [],
      "name": "getMyEggs",
      "outputs": [
        {
          "name": "",
          "type": "uint256"
        }
      ],
      "payable": false,
      "stateMutability": "view",
      "type": "function"
    },
    {
      "constant": true,
      "inputs": [
        {
          "name": "",
          "type": "address"
        }
      ],
      "name": "lastHatch",
      "outputs": [
        {
          "name": "",
          "type": "uint256"
        }
      ],
      "payable": false,
      "stateMutability": "view",
      "type": "function"
    },
    {
      "constant": true,
      "inputs": [
        {
          "name": "",
          "type": "address"
        }
      ],
      "name": "claimedEggs",
      "outputs": [
        {
          "name": "",
          "type": "uint256"
        }
      ],
      "payable": false,
      "stateMutability": "view",
      "type": "function"
    },
    {
      "constant": true,
      "inputs": [
        {
          "name": "",
          "type": "address"
        }
      ],
      "name": "hatcheryMiners",
      "outputs": [
        {
          "name": "",
          "type": "uint256"
        }
      ],
      "payable": false,
      "stateMutability": "view",
      "type": "function"
    },
    {
      "constant": true,
      "inputs": [],
      "name": "EGGS_TO_HATCH_1MINERS",
      "outputs": [
        {
          "name": "",
          "type": "uint256"
        }
      ],
      "payable": false,
      "stateMutability": "view",
      "type": "function"
    },
    {
      "constant": true,
      "inputs": [
        {
          "name": "eth",
          "type": "uint256"
        }
      ],
      "name": "calculateEggBuySimple",
      "outputs": [
        {
          "name": "",
          "type": "uint256"
        }
      ],
      "payable": false,
      "stateMutability": "view",
      "type": "function"
    },
    {
      "constant": true,
      "inputs": [
        {
          "name": "eggs",
          "type": "uint256"
        }
      ],
      "name": "calculateEggSell",
      "outputs": [
        {
          "name": "",
          "type": "uint256"
        }
      ],
      "payable": false,
      "stateMutability": "view",
      "type": "function"
    },
    {
      "constant": true,
      "inputs": [
        {
          "name": "",
          "type": "address"
        }
      ],
      "name": "referrals",
      "outputs": [
        {
          "name": "",
          "type": "address"
        }
      ],
      "payable": false,
      "stateMutability": "view",
      "type": "function"
    },
    {
      "constant": true,
      "inputs": [
        {
          "name": "adr",
          "type": "address"
        }
      ],
      "name": "getEggsSinceLastHatch",
      "outputs": [
        {
          "name": "",
          "type": "uint256"
        }
      ],
      "payable": false,
      "stateMutability": "view",
      "type": "function"
    },
    {
      "constant": false,
      "inputs": [
        {
          "name": "ref",
          "type": "address"
        }
      ],
      "name": "buyEggs",
      "outputs": [],
      "payable": true,
      "stateMutability": "payable",
      "type": "function"
    },
    {
      "inputs": [],
      "payable": false,
      "stateMutability": "nonpayable",
      "type": "constructor"
    }
  ],
  "bytecode": "0x6080604052620d2f006000556127106001556113886002556003805460ff1916905534801561002d57600080fd5b506003805461010060a860020a0319163361010002179055610e13806100546000396000f30060806040526004361061011c5763ffffffff7c01000000000000000000000000000000000000000000000000000000006000350416630a0f816881146101215780630a76e5ed1461015f57806312065fe014610186578063158ef93e1461019b578063229824c4146101c457806326fd8422146101e25780632e9392bb146101fd5780633955f0fe146102125780633bc0461a146102295780633c5f07cb146102415780633ec862a81461024957806343ce742214610277578063467ece791461028c57806372670361146102ba57806379532aa9146102e85780637cdebc21146103165780637e56fde51461032b5780638e316327146103435780639ca423b31461035b578063d7c8843b14610389578063db663865146103b7575b600080fd5b34801561012d57600080fd5b506101366103d8565b6040805173ffffffffffffffffffffffffffffffffffffffff9092168252519081900360200190f35b34801561016b57600080fd5b506101746103f9565b60408051918252519081900360200190f35b34801561019257600080fd5b5061017461040c565b3480156101a757600080fd5b506101b0610411565b604080519115158252519081900360200190f35b3480156101d057600080fd5b5061017460043560243560443561041a565b3480156101ee57600080fd5b506101746004356024356104bc565b34801561020957600080fd5b506101746104d2565b34801561021e57600080fd5b506102276104d8565b005b34801561023557600080fd5b506101746004356105c8565b6102276105e5565b34801561025557600080fd5b5061022773ffffffffffffffffffffffffffffffffffffffff60043516610695565b34801561028357600080fd5b50610174610897565b34801561029857600080fd5b5061017473ffffffffffffffffffffffffffffffffffffffff600435166108bc565b3480156102c657600080fd5b5061017473ffffffffffffffffffffffffffffffffffffffff600435166108ce565b3480156102f457600080fd5b5061017473ffffffffffffffffffffffffffffffffffffffff600435166108e0565b34801561032257600080fd5b506101746108f2565b34801561033757600080fd5b506101746004356108f8565b34801561034f57600080fd5b50610174600435610905565b34801561036757600080fd5b5061013673ffffffffffffffffffffffffffffffffffffffff6004351661092b565b34801561039557600080fd5b5061017473ffffffffffffffffffffffffffffffffffffffff60043516610953565b61022773ffffffffffffffffffffffffffffffffffffffff600435166109c4565b600354610100900473ffffffffffffffffffffffffffffffffffffffff1681565b3360009081526004602052604090205490565b303190565b60035460ff1681565b60408051808201909152600781527f7472616465203d00000000000000000000000000000000000000000000000000602082015260009061047190670de0b6b3a76400008604670de0b6b3a7640000860485610b76565b6104b461048060015484610c62565b6104af6002546104a46104a96104986001548a610c62565b6104a46002548c610c62565b610c98565b89610ca7565b610ca7565b949350505050565b60006104cb838360085461041a565b9392505050565b60085481565b6003546000908190819060ff1615156104f057600080fd5b6104f8610897565b925061050383610905565b915061050e826105c8565b3360009081526005602090815260408083208390556006909152902042905560085490915061053d9084610c98565b60085560035460405161010090910473ffffffffffffffffffffffffffffffffffffffff16906108fc8315029083906000818181858888f1935050505015801561058b573d6000803e3d6000fd5b50336108fc61059a8484610cbe565b6040518115909202916000818181858888f193505050501580156105c2573d6000803e3d6000fd5b50505050565b60006105df6105d8836003610c62565b6064610ca7565b92915050565b600354610100900473ffffffffffffffffffffffffffffffffffffffff16331461067057604080517f08c379a000000000000000000000000000000000000000000000000000000000815260206004820152600c60248201527f696e76616c69642063616c6c0000000000000000000000000000000000000000604482015290519081900360640190fd5b6008541561067d57600080fd5b6003805460ff1916600117905564141dd76000600855565b600354600090819060ff1615156106ab57600080fd5b73ffffffffffffffffffffffffffffffffffffffff83163314806106e3575073ffffffffffffffffffffffffffffffffffffffff8316155b80610711575073ffffffffffffffffffffffffffffffffffffffff8316600090815260046020526040902054155b1561073757600354610100900473ffffffffffffffffffffffffffffffffffffffff1692505b3360009081526007602052604090205473ffffffffffffffffffffffffffffffffffffffff1615156107b15733600090815260076020526040902080547fffffffffffffffffffffffff00000000000000000000000000000000000000001673ffffffffffffffffffffffffffffffffffffffff85161790555b6107b9610897565b91506107c782600054610ca7565b336000908152600460205260409020549091506107e49082610c98565b33600090815260046020908152604080832093909355600580825283832083905560068252838320429055600782528383205473ffffffffffffffffffffffffffffffffffffffff16835290522054610845906104a46105d885600d610c62565b3360009081526007602090815260408083205473ffffffffffffffffffffffffffffffffffffffff1683526005918290529091209190915560085461088f916104a4908590610ca7565b600855505050565b3360008181526005602052604081205490916108b791906104a490610953565b905090565b60066020526000908152604090205481565b60056020526000908152604090205481565b60046020526000908152604090205481565b60005481565b60006105df8230316104bc565b60006105df826008543073ffffffffffffffffffffffffffffffffffffffff163161041a565b60076020526000908152604090205473ffffffffffffffffffffffffffffffffffffffff1681565b6000805473ffffffffffffffffffffffffffffffffffffffff831682526006602052604082205482916109909161098b904290610cbe565b610cd0565b73ffffffffffffffffffffffffffffffffffffffff84166000908152600460205260409020549091506104cb908290610c62565b600354600090819060ff1615156109da57600080fd5b60408051808201909152600e81527f2874686973292e62616c616e63650000000000000000000000000000000000006020820152610a3990670de0b6b3a7640000303104670de0b6b3a76400003404610a34303134610cbe565b610b76565b610a4d34610a48303182610cbe565b6104bc565b9150610a8e6040805190810160405280600581526020017f656767733d00000000000000000000000000000000000000000000000000000081525083610ce6565b610aa082610a9b846105c8565b610cbe565b9150610aab346105c8565b600354604051919250610100900473ffffffffffffffffffffffffffffffffffffffff16906108fc8315029083906000818181858888f19350505050158015610af8573d6000803e3d6000fd5b5060408051808201909152600681527f65746865722000000000000000000000000000000000000000000000000000006020820152610b3e906012600a30310404610ce6565b33600090815260056020526040902054610b589083610c98565b33600090815260056020526040902055610b7183610695565b505050565b6105c2848484846040516024018080602001858152602001848152602001838152602001828103825286818151815260200191508051906020019080838360005b83811015610bcf578181015183820152602001610bb7565b50505050905090810190601f168015610bfc5780820380516001836020036101000a031916815260200191505b5060408051601f198184030181529190526020810180517bffffffffffffffffffffffffffffffffffffffffffffffffffffffff167f08ee5666000000000000000000000000000000000000000000000000000000001790529550610dc6945050505050565b600080831515610c755760009150610c91565b50828202828482811515610c8557fe5b0414610c8d57fe5b8091505b5092915050565b600082820183811015610c8d57fe5b6000808284811515610cb557fe5b04949350505050565b600082821115610cca57fe5b50900390565b6000818310610cdf57816104cb565b5090919050565b610dc282826040516024018080602001838152602001828103825284818151815260200191508051906020019080838360005b83811015610d31578181015183820152602001610d19565b50505050905090810190601f168015610d5e5780820380516001836020036101000a031916815260200191505b5060408051601f198184030181529190526020810180517bffffffffffffffffffffffffffffffffffffffffffffffffffffffff167f9710a9d0000000000000000000000000000000000000000000000000000000001790529350610dc692505050565b5050565b80516a636f6e736f6c652e6c6f67602083016000808483855afa50505050505600a165627a7a72305820bb3bfc2d42911cbe41c5f7132e0ac31ab9ff5c3a3fefab3ec7569fce1d6760df0029",
  "linkReferences": {},
  "deployedLinkReferences": {}
}