{
  "_format": "hh-sol-artifact-1",
  "contractName": "RoastedBeef",
  "sourceName": "contracts/beat/main.sol",
  "abi": [
    {
      "constant": true,
      "inputs": [],
      "name": "ceoAddress",
      "outputs": [
        {
          "name": "",
          "type": "address"
        }
      ],
      "payable": false,
      "stateMutability": "view",
      "type": "function"
    },
    {
      "constant": true,
      "inputs": [],
      "name": "getMyMiners",
      "outputs": [
        {
          "name": "",
          "type": "uint256"
        }
      ],
      "payable": false,
      "stateMutability": "view",
      "type": "function"
    },
    {
      "constant": true,
      "inputs": [],
      "name": "getBalance",
      "outputs": [
        {
          "name": "",
          "type": "uint256"
        }
      ],
      "payable": false,
      "stateMutability": "view",
      "type": "function"
    },
    {
      "constant": true,
      "inputs": [],
      "name": "initialized",
      "outputs": [
        {
          "name": "",
          "type": "bool"
        }
      ],
      "payable": false,
      "stateMutability": "view",
      "type": "function"
    },
    {
      "constant": true,
      "inputs": [
        {
          "name": "rt",
          "type": "uint256"
        },
        {
          "name": "rs",
          "type": "uint256"
        },
        {
          "name": "bs",
          "type": "uint256"
        }
      ],
      "name": "calculateTrade",
      "outputs": [
        {
          "name": "",
          "type": "uint256"
        }
      ],
      "payable": false,
      "stateMutability": "view",
      "type": "function"
    },
    {
      "constant": true,
      "inputs": [
        {
          "name": "eth",
          "type": "uint256"
        },
        {
          "name": "contractBalance",
          "type": "uint256"
        }
      ],
      "name": "calculateEggBuy",
      "outputs": [
        {
          "name": "",
          "type": "uint256"
        }
      ],
      "payable": false,
      "stateMutability": "view",
      "type": "function"
    },
    {
      "constant": true,
      "inputs": [],
      "name": "marketEggs",
      "outputs": [
        {
          "name": "",
          "type": "uint256"
        }
      ],
      "payable": false,
      "stateMutability": "view",
      "type": "function"
    },
    {
      "constant": false,
      "inputs": [],
      "name": "sellEggs",
      "outputs": [],
      "payable": false,
      "stateMutability": "nonpayable",
      "type": "function"
    },
    {
      "constant": true,
      "inputs": [
        {
          "name": "amount",
          "type": "uint256"
        }
      ],
      "name": "devFee",
      "outputs": [
        {
          "name": "",
          "type": "uint256"
        }
      ],
      "payable": false,
      "stateMutability": "pure",
      "type": "function"
    },
    {
      "constant": false,
      "inputs": [],
      "name": "seedMarket",
      "outputs": [],
      "payable": true,
      "stateMutability": "payable",
      "type": "function"
    },
    {
      "constant": false,
      "inputs": [
        {
          "name": "ref",
          "type": "address"
        }
      ],
      "name": "hatchEggs",
      "outputs": [],
      "payable": false,
      "stateMutability": "nonpayable",
      "type": "function"
    },
    {
      "constant": true,
      "inputs": [],
      "name": "getMyEggs",
      "outputs": [
        {
          "name": "",
          "type": "uint256"
        }
      ],
      "payable": false,
      "stateMutability": "view",
      "type": "function"
    },
    {
      "constant": true,
      "inputs": [
        {
          "name": "",
          "type": "address"
        }
      ],
      "name": "lastHatch",
      "outputs": [
        {
          "name": "",
          "type": "uint256"
        }
      ],
      "payable": false,
      "stateMutability": "view",
      "type": "function"
    },
    {
      "constant": true,
      "inputs": [
        {
          "name": "",
          "type": "address"
        }
      ],
      "name": "claimedEggs",
      "outputs": [
        {
          "name": "",
          "type": "uint256"
        }
      ],
      "payable": false,
      "stateMutability": "view",
      "type": "function"
    },
    {
      "constant": true,
      "inputs": [
        {
          "name": "",
          "type": "address"
        }
      ],
      "name": "hatcheryMiners",
      "outputs": [
        {
          "name": "",
          "type": "uint256"
        }
      ],
      "payable": false,
      "stateMutability": "view",
      "type": "function"
    },
    {
      "constant": true,
      "inputs": [],
      "name": "EGGS_TO_HATCH_1MINERS",
      "outputs": [
        {
          "name": "",
          "type": "uint256"
        }
      ],
      "payable": false,
      "stateMutability": "view",
      "type": "function"
    },
    {
      "constant": true,
      "inputs": [
        {
          "name": "eth",
          "type": "uint256"
        }
      ],
      "name": "calculateEggBuySimple",
      "outputs": [
        {
          "name": "",
          "type": "uint256"
        }
      ],
      "payable": false,
      "stateMutability": "view",
      "type": "function"
    },
    {
      "constant": true,
      "inputs": [
        {
          "name": "eggs",
          "type": "uint256"
        }
      ],
      "name": "calculateEggSell",
      "outputs": [
        {
          "name": "",
          "type": "uint256"
        }
      ],
      "payable": false,
      "stateMutability": "view",
      "type": "function"
    },
    {
      "constant": true,
      "inputs": [
        {
          "name": "",
          "type": "address"
        }
      ],
      "name": "referrals",
      "outputs": [
        {
          "name": "",
          "type": "address"
        }
      ],
      "payable": false,
      "stateMutability": "view",
      "type": "function"
    },
    {
      "constant": true,
      "inputs": [
        {
          "name": "adr",
          "type": "address"
        }
      ],
      "name": "getEggsSinceLastHatch",
      "outputs": [
        {
          "name": "",
          "type": "uint256"
        }
      ],
      "payable": false,
      "stateMutability": "view",
      "type": "function"
    },
    {
      "constant": false,
      "inputs": [
        {
          "name": "ref",
          "type": "address"
        }
      ],
      "name": "buyEggs",
      "outputs": [],
      "payable": true,
      "stateMutability": "payable",
      "type": "function"
    },
    {
      "inputs": [],
      "payable": false,
      "stateMutability": "nonpayable",
      "type": "constructor"
    }
  ],
  "bytecode": "0x6080604052620d2f006000556127106001556113886002556003805460ff1916905534801561002d57600080fd5b506003805461010060a860020a0319163361010002179055610d41806100546000396000f30060806040526004361061011c5763ffffffff7c01000000000000000000000000000000000000000000000000000000006000350416630a0f816881146101215780630a76e5ed1461015f57806312065fe014610186578063158ef93e1461019b578063229824c4146101c457806326fd8422146101e25780632e9392bb146101fd5780633955f0fe146102125780633bc0461a146102295780633c5f07cb146102415780633ec862a81461024957806343ce742214610277578063467ece791461028c57806372670361146102ba57806379532aa9146102e85780637cdebc21146103165780637e56fde51461032b5780638e316327146103435780639ca423b31461035b578063d7c8843b14610389578063db663865146103b7575b600080fd5b34801561012d57600080fd5b506101366103d8565b6040805173ffffffffffffffffffffffffffffffffffffffff9092168252519081900360200190f35b34801561016b57600080fd5b506101746103f9565b60408051918252519081900360200190f35b34801561019257600080fd5b5061017461040c565b3480156101a757600080fd5b506101b0610411565b604080519115158252519081900360200190f35b3480156101d057600080fd5b5061017460043560243560443561041a565b3480156101ee57600080fd5b50610174600435602435610467565b34801561020957600080fd5b5061017461047d565b34801561021e57600080fd5b50610227610483565b005b34801561023557600080fd5b50610174600435610573565b610227610590565b34801561025557600080fd5b5061022773ffffffffffffffffffffffffffffffffffffffff60043516610640565b34801561028357600080fd5b50610174610842565b34801561029857600080fd5b5061017473ffffffffffffffffffffffffffffffffffffffff60043516610867565b3480156102c657600080fd5b5061017473ffffffffffffffffffffffffffffffffffffffff60043516610879565b3480156102f457600080fd5b5061017473ffffffffffffffffffffffffffffffffffffffff6004351661088b565b34801561032257600080fd5b5061017461089d565b34801561033757600080fd5b506101746004356108a3565b34801561034f57600080fd5b506101746004356108b0565b34801561036757600080fd5b5061013673ffffffffffffffffffffffffffffffffffffffff600435166108d6565b34801561039557600080fd5b5061017473ffffffffffffffffffffffffffffffffffffffff600435166108fe565b61022773ffffffffffffffffffffffffffffffffffffffff6004351661096f565b600354610100900473ffffffffffffffffffffffffffffffffffffffff1681565b3360009081526004602052604090205490565b303190565b60035460ff1681565b600061045f61042b60015484610ab9565b61045a60025461044f6104546104436001548a610ab9565b61044f6002548c610ab9565b610aef565b89610afe565b610afe565b949350505050565b6000610476838360085461041a565b9392505050565b60085481565b6003546000908190819060ff16151561049b57600080fd5b6104a3610842565b92506104ae836108b0565b91506104b982610573565b336000908152600560209081526040808320839055600690915290204290556008549091506104e89084610aef565b60085560035460405161010090910473ffffffffffffffffffffffffffffffffffffffff16906108fc8315029083906000818181858888f19350505050158015610536573d6000803e3d6000fd5b50336108fc6105458484610b15565b6040518115909202916000818181858888f1935050505015801561056d573d6000803e3d6000fd5b50505050565b600061058a610583836003610ab9565b6064610afe565b92915050565b600354610100900473ffffffffffffffffffffffffffffffffffffffff16331461061b57604080517f08c379a000000000000000000000000000000000000000000000000000000000815260206004820152600c60248201527f696e76616c69642063616c6c0000000000000000000000000000000000000000604482015290519081900360640190fd5b6008541561062857600080fd5b6003805460ff1916600117905564141dd76000600855565b600354600090819060ff16151561065657600080fd5b73ffffffffffffffffffffffffffffffffffffffff831633148061068e575073ffffffffffffffffffffffffffffffffffffffff8316155b806106bc575073ffffffffffffffffffffffffffffffffffffffff8316600090815260046020526040902054155b156106e257600354610100900473ffffffffffffffffffffffffffffffffffffffff1692505b3360009081526007602052604090205473ffffffffffffffffffffffffffffffffffffffff16151561075c5733600090815260076020526040902080547fffffffffffffffffffffffff00000000000000000000000000000000000000001673ffffffffffffffffffffffffffffffffffffffff85161790555b610764610842565b915061077282600054610afe565b3360009081526004602052604090205490915061078f9082610aef565b33600090815260046020908152604080832093909355600580825283832083905560068252838320429055600782528383205473ffffffffffffffffffffffffffffffffffffffff168352905220546107f09061044f61058385600d610ab9565b3360009081526007602090815260408083205473ffffffffffffffffffffffffffffffffffffffff1683526005918290529091209190915560085461083a9161044f908590610afe565b600855505050565b336000818152600560205260408120549091610862919061044f906108fe565b905090565b60066020526000908152604090205481565b60056020526000908152604090205481565b60046020526000908152604090205481565b60005481565b600061058a823031610467565b600061058a826008543073ffffffffffffffffffffffffffffffffffffffff163161041a565b60076020526000908152604090205473ffffffffffffffffffffffffffffffffffffffff1681565b6000805473ffffffffffffffffffffffffffffffffffffffff8316825260066020526040822054829161093b91610936904290610b15565b610b27565b73ffffffffffffffffffffffffffffffffffffffff8416600090815260046020526040902054909150610476908290610ab9565b6000806109b06040805190810160405280600a81526020017f65676773426f7567687400000000000000000000000000000000000000000000815250610b3d565b60035460ff1615156109c157600080fd5b6109d5346109d0303182610b15565b610467565b91506109e9826109e484610573565b610b15565b9150610a2a6040805190810160405280600a81526020017f65676773426f756768740000000000000000000000000000000000000000000081525083610c14565b610a3334610573565b600354604051919250610100900473ffffffffffffffffffffffffffffffffffffffff16906108fc8315029083906000818181858888f19350505050158015610a80573d6000803e3d6000fd5b5033600090815260056020526040902054610a9b9083610aef565b33600090815260056020526040902055610ab483610640565b505050565b600080831515610acc5760009150610ae8565b50828202828482811515610adc57fe5b0414610ae457fe5b8091505b5092915050565b600082820183811015610ae457fe5b6000808284811515610b0c57fe5b04949350505050565b600082821115610b2157fe5b50900390565b6000818310610b365781610476565b5090919050565b610c11816040516024018080602001828103825283818151815260200191508051906020019080838360005b83811015610b81578181015183820152602001610b69565b50505050905090810190601f168015610bae5780820380516001836020036101000a031916815260200191505b5060408051601f198184030181529190526020810180517bffffffffffffffffffffffffffffffffffffffffffffffffffffffff167f41304fac000000000000000000000000000000000000000000000000000000001790529250610cf4915050565b50565b610cf082826040516024018080602001838152602001828103825284818151815260200191508051906020019080838360005b83811015610c5f578181015183820152602001610c47565b50505050905090810190601f168015610c8c5780820380516001836020036101000a031916815260200191505b5060408051601f198184030181529190526020810180517bffffffffffffffffffffffffffffffffffffffffffffffffffffffff167f9710a9d0000000000000000000000000000000000000000000000000000000001790529350610cf492505050565b5050565b80516a636f6e736f6c652e6c6f67602083016000808483855afa50505050505600a165627a7a72305820ed06bf6a364aae40f917a867ed778a2d5f62d689d8dead08da39c97211baa5d60029",
  "linkReferences": {},
  "deployedLinkReferences": {}
}